:020000040800F2
:100000000807002065020008811B0008791B000812
:100010007D1B000839080008351D0008000000009D
:10002000000000000000000000000000891B000824
:100030006D08000800000000851B00088D1B0008EB
:100040007F0200087F0200087F0200087F0200088C
:100050007F0200087F0200087F0200087F0200087C
:100060007F0200087F0200087F0200087F0200086C
:100070007F0200087F0200087F0200087F0200085C
:100080007F0200087F0200087F0200086108000864
:100090003D08000849080008550800087F020008CC
:1000A0007F0200087F0200087F0200087F0200082C
:1000B0007F0200087F0200087F0200087F0200081C
:1000C0007F0200087F0200087F0200087F0200080C
:1000D0007F0200087F0200087F0200087F020008FC
:1000E0007F0200087F0200087F0200087F020008EC
:1000F0007F0200087F0200087F0200087F020008DC
:100100007F0200087F0200087F0200087F020008CB
:100110007F0200087F0200087F0200087F020008BB
:100120007F0200087F0200087F0200087F020008AB
:100130007F0200087F0200087F0200087F0200089B
:100140007F0200087F0200087F0200087F0200088B
:100150007F0200087F0200087F0200087F0200087B
:100160007F0200087F0200087F0200087F0200086B
:100170007F0200087F0200087F02000800000000E4
:100180007F0200087F02000800F002F800F05AF831
:1001900014A696E8000CB244B344DA4501D100F04D
:1001A00051F8BAE80F000FA696E83000A5EB040559
:1001B00004EB0607AAEB0704A7F101074FEA1515A0
:1001C0004FEA3414A4F10104AC4201D300F03AF830
:1001D00013F0010F18BFFB1A43F0010300F001F800
:1001E000DBE71847B41C0000D41C0000103A24BF01
:1001F00078C878C1FAD8520724BF30C830C144BF8C
:1002000004680C6070470000704700000023002461
:1002100000250026103A28BF78C1FBD8520728BF16
:1002200030C148BF0B607047752900F0FB8078290A
:1002300000F03481002070471FB501F0E7FD1FBDBD
:1002400010B510BD00F0BEFA1146FFF7F5FF01F042
:1002500073FD00F0DCFA03B4FFF7F2FF03BC00F01B
:10026000E3FA00000948804709480047FEE7FEE737
:10027000FEE7FEE7FEE7FEE7FEE7FEE7FEE7FEE756
:1002800004480549054A064B70470000391C000820
:100290008901000808010020080700200803002049
:1002A0000803002053EA020C00F069802DE9F04BAE
:1002B0004FF00006002B1FBFB3FA83F503FA05F4D5
:1002C00024FA05F65E4012BF1643B2FA82F502FA2E
:1002D00005F4C5F120051EBF22FA05FC44EA0C0412
:1002E000203556EA044C4FEA144418BF641C4FF002
:1002F00000084FF00009904271EB030C39D300293C
:1003000019BFB1FA81F701FA07F6B0FA80F700FADF
:1003100007F6C7F120071EBF20FA07FC46EA0C06C5
:100320002037B6FBF4FCA7EB0507103F07F01F0BC7
:10033000CBF120062CFA06F60CFA0BFB44BFB346B1
:100340000026202FA4BF5E464FF0000B5BEA060C90
:1003500008BF4FF0010B19EB0B0948EB0608ABFB8C
:10036000027C06FB02CC0BFB03CCC01B71EB0C0127
:10037000C1E70B46024641464846BDE8F08B13B53F
:10038000084318BF4FF0FF300146AFF30080BDE8CF
:100390001C4070470FB41CB50C0007AA009007D092
:1003A0004142A14202D32044401E01E04FF0FF3001
:1003B000074B7B4469460190069800F0E8F900215C
:1003C000002C01D0009A11701CBC5DF814FB0000D9
:1003D000FF03000070B5044685690068C10601D5B9
:1003E000302600E02026C00707D070BDD4E90121E7
:1003F00030469047206A401C20626D1EF6D570BDC5
:1004000070B5044685690078C00707D170BDD4E98E
:10041000012120209047206A401C20626D1EF6D5E5
:1004200070BD00002DE9F0410646002410687529D2
:10043000314616A510D0AFF30080002802DA404202
:1004400013A507E031688A0701D512A502E0490724
:1004500004D511A5012401E0AFF3008000210A2298
:1004600006F1240709E0B0FBF2FCB0FBF2F302FB5B
:100470001C00303078541846491C0028F3D123461C
:100480002A463046BDE8F04100F022B900000000E5
:100490002D0000002B0000002000000070B5044675
:1004A0000D4621461068AFF300802188090502D56A
:1004B0000F4A7A4402E00E4A7A440E32002104F1D7
:1004C000240305E000F00F060009965D5E54491C08
:1004D0000028F7D120780023000704D5702D02D022
:1004E00009B1022311322046BDE8704000F0F0B897
:1004F000701900002DE9F05F894604464FF0000AAC
:10050000DFF874B1FB44C0F820A02046E1688847BA
:10051000002874D0252806D0D4E901219047206A0C
:10052000401C2062F1E700265F462046E1688847CC
:100530002028054607DB312D05D2781910F8200C4C
:1005400008B10643F1E7B00701D526F00406C4F868
:100550001CA00027C4F818A02A2D09D0284601F0B5
:100560004EFC38B304EB8708303DC8F8185019E04A
:1005700059F8041B204604EB87029161E168884723
:10058000012F054618D1E069002820DA26F0200660
:100590001DE0D8F8180000EB800005EB4000303873
:1005A000C8F818002046E1688847054601F027FC96
:1005B0000028EED1012F0AD02E2D08D12046E16867
:1005C00088477F1C0546022F46F02006C4DBA06941
:1005D000002803DA404246F00106A061F00701D08E
:1005E00026F010066C2D0BD0682D09D04C2D39D07B
:1005F0006A2D35D0742D35D07A2D33D016E038E001
:10060000E1682F4620468847B842054609D16C2F3D
:1006100026D04FF48060E1680643204688470546AF
:1006200004E06C2F1AD04FF4807006430DB3A5F18F
:100630004100192802D8203546F400664A4629466A
:10064000204626604E46FFF7EFFD80B101280BD013
:10065000F61D26F0070000F1080956E74020E4E700
:100660008020D8E70020D6E706F104094DE72846A8
:1006700052E7206ABDE8F09F461900004FF00002E3
:1006800000B5134694469646203922BFA0E80C5088
:10069000A0E80C50B1F12001BFF4F7AF090728BF63
:1006A000A0E80C5048BF0CC05DF804EB890028BFDF
:1006B00040F8042B08BF704748BF20F8022B11F008
:1006C000804F18BF00F8012B704770477047704784
:1006D0002DE9F0470D4699469246044600F124085C
:1006E0000168880604D5E06921F01001216000E06E
:1006F0000120A84201DD471B00E00027A1697A190B
:1007000002EB0900081AA0612078C00602D4204636
:10071000FFF760FE002608E0D4E901211AF8060080
:100720009047206A401C761C20624E45F4DB2078FE
:10073000C0060AD52046FFF74DFE06E0D4E90121A8
:1007400030209047206A401C2062381EA7F1010724
:10075000F4DC07E0D4E9012118F805009047206A8D
:10076000401C2062281EA5F10105F3DC2046FFF79E
:1007700047FE2078000602D50220BDE8F087012060
:10078000FBE7000001694A1C02610878704700B568
:100790008FB0CDE901310021059105497944CDE9BA
:1007A000031011466846FFF7A5FE0FB000BD00001C
:1007B000E5FFFFFFD1E900239A4202D2531C0B60F0
:1007C00010707047754600F02BF8AE46050069467C
:1007D000534620F00700854618B020B5FFF750FDBE
:1007E000BDE820404FF000064FF000074FF0000832
:1007F0004FF0000BAC46ACE8C009ACE8C009ACE86F
:10080000C009ACE8C00921F007018D46704710B55A
:100810000446AFF300802046BDE81040FFF71BBD43
:10082000004870471000002001491820ABBEFEE7C9
:100830002600020070470000FEE7000040F294002E
:10084000C2F2000000F036B940F29400C2F200009B
:1008500000F030B940F29400C2F2000000F02AB972
:1008600040F29400C2F2000000F024B9704700008A
:1008700090F82020013A012A08D8006800F11402FB
:100880000020136819431160704700BF00F1240273
:1008900001204FF480211368194311607047000054
:1008A00090F82020013A012A30D8B0B546F2006015
:1008B000C4F20000026842F001020260026822F401
:1008C0007C520260D1F814E0CC694A6A0368012CBA
:1008D00043EA022202600EF01F024FF0010303FA06
:1008E00002F2C3696FEA020C23EA0203C36113D068
:1008F0002CBBC36803EA0C03C360CB688C8844EA52
:10090000034300EBCE0423640B4611E0416A41F43B
:100910008021416201207047C3681343C3600B68A4
:100920008C8844EA034300EBCE04236401F10C03FA
:100930008C681B8843EA044300EBCE04636443687D
:100940008D6943EA0204D1F810E0096A002D08BF5E
:1009500003EA0C0444604369BEF1000F43EA020459
:1009600008BF03EA0C040129446102D1C1691143A3
:10097000C161016821F0010101600020B0BD0000EB
:1009800070470000B0B590F82040013C012C7DD8A4
:10099000D0F800C000290CBFDCF80C40DCF8104097
:1009A000A4077DD00CF5D8754FEA011C55F80C4012
:1009B00014F00404946055F80CE005EB011C19BF19
:1009C0004FEADE0555604FEA5E551560DCF80050D1
:1009D000E64605F00205D5605EF8044F24075ABFCD
:1009E000DEF8004004F00F0408241461DEF8004033
:1009F0000029C4F307249461DEF800504FEA15453E
:100A00005561DCF808201A70026802EB0112D2F876
:100A1000B8214FEA12225A70026802EB0112D2F892
:100A2000B8214FEA12429A70026802EB0112D2F822
:100A3000B8214FEA1262DA70026802EB0112D2F8B2
:100A4000BC211A71026802EB0112D2F8BC214FEAF4
:100A500012225A71026802EB0112D2F8BC214FEA4D
:100A600012429A71026802EB0112D2F8BC214FEADD
:100A70001262DA7100680CBF00F10C0100F1100184
:100A8000002020220B681A430A60B0BD00F1240147
:100A900001204FF480220B681A430A60B0BD00BFEA
:100AA00000F1240101204FF400120B681A430A6080
:100AB000B0BD00002DE9F04F81B0044600684669E2
:100AC000D0F804908768D0F80CB0D0F810A0D0F817
:100AD0001880F10704D1002530071DD424E000BFA1
:100AE000F90710D00121BA07816009D4780700F115
:100AF000AF80380700F1B680204600F06DFA02E0C2
:100B0000204600F06BFA0025F80500F18780F80315
:100B100000F1B180300707D51BF0100004D0206829
:100B200045F400751021C160700708D51BF008005E
:100B300005D020680821C160204600F0C1F9B00747
:100B400006D52068C068800702D0204600F0BAF9B8
:100B5000700607D51AF0100004D0206845F48065AF
:100B600010210161B00608D51AF0080005D02068F0
:100B700008210161204600F0FBF9F00606D5206847
:100B80000069800702D0204600F0F4F9B00308D5D0
:100B900019F0100005D0206810214160204600F0B7
:100BA000EBF9F00308D519F0080005D020680821FA
:100BB0004160204600F01CFA300440F19B805FEA5F
:100BC000497040F1948006F4807008EA10202843B0
:100BD0005FEA8871014648BF41F00201B20558BF83
:100BE00001465FEA48700D4648BF45F004057005B0
:100BF00058BF0D46300540F17A8018F0700000F0C3
:100C000076801038000905286CD8DFE800F003650D
:100C10005D61596945F0080564E000BF20684FF444
:100C20008071BA0581600BD4780515D438051DD4C0
:100C3000204600F0D5F9F8037FF56CAF1BE000BF4C
:100C4000204600F0CFF9F8037FF564AF13E000BF52
:100C50004FF4006558E700BF05F50055F8037FF530
:100C600059AF08E04FF480554EE700BF05F58045C9
:100C7000F8037FF54FAF20684FF48031BA038160ED
:100C80000AD4780310D4380314D4204600F0ACF909
:100C900030073FF541AF47E7204600F0A7F930079E
:100CA0003FF53AAF40E700BF05F5004530073FF597
:100CB00033AF39E705F5803530073FF52DAF33E722
:100CC00045F080050EE000BF45F020050AE000BFBA
:100CD00045F0400506E000BF45F0100502E000BF0A
:100CE00045F480752068816921F070018161206878
:100CF0000421416055B1606A40EA05012046616205
:100D000001B0BDE8F04FFFF73BBE00BF01B0BDE84A
:100D1000F08F0000002804BF01207047B0B50446E2
:100D200090F8200010B9204600F06EF820680168A5
:100D300041F00101016000F02DFA0546206841688C
:100D4000C90705D100F026FA401B0B28F6D310E0A6
:100D5000016821F00201016000F01CFA054600BFA5
:100D60002068416889070DD500F014FA401B0B2854
:100D7000F6D3606A052140F400306062012084F8F7
:100D80002010B0BD217E0268012922F0800208BF38
:100D900080320260617E0268012922F0400208BFB1
:100DA00040320260A17E0268012922F0200208BFC1
:100DB00020320260E17E0268012922F0100218BF91
:100DC00010320260217F0268012922F0080208BF68
:100DD00008320260617F0268012922F0040208BF24
:100DE00004320260D4E901C2D4E9033561691A43CF
:100DF0002A431143ACF101021143C16100200121DA
:100E0000606284F82010B0BD80B586B046F2004123
:100E10000068C4F20001002288420592CDE9032255
:100E20000292019202D006B080BD00BF43F63000AE
:100E30000092C4F20200036943F000730361036986
:100E400003F000730093009B0092036843F00103DA
:100E50000360006800F00100009000984FF4C0505B
:100E600001900220CDE902020320049009200590A0
:100E700001F5CE3001A900F0BDF8132000210022B9
:100E800000F00AFA132000F0F5F9142000210022E6
:100E900000F002FA142000F0EDF9152000210022E4
:100EA00000F0FAF9152000F0E5F9162000210022E3
:100EB00000F0F2F9162000F0DDF906B080BD000068
:100EC00070470000016846F20042C4F200029142FD
:100ED00018BF70472DE9F041A2B040F27005C2F290
:100EE000000505F1080200212B46FFF74BFD18B164
:100EF00022B0BDE8F0417047AB68AF6941F67A6255
:100F00000DF10808C0F60002404680210097FFF767
:100F100041FAA969064699B141F691670021C0F6E8
:100F2000000700246B5C08EB0600C6F180013A461E
:100F3000FFF730FA0134AA69E1B28A420644F1D8D7
:100F400041F6776208EB0600C6F18001C0F60002A8
:100F5000FFF720FA304482B240F2BC00C2F2000037
:100F60004146642300F03EFD22B0BDE8F0417047E9
:100F7000704700007047000070470000B0B504469D
:100F800090F8200001281DD1022084F8200020685C
:100F9000016821F00101016000F0FCF8054600BF86
:100FA00020684068C00713D000F0F4F8401B0B28FD
:100FB000F6D3606A40F400306062052084F82000B7
:100FC0000120B0BD606A40F4002060620120B0BD25
:100FD00000206062B0BD0000704700007047000054
:100FE0007047000070470000704700007047000025
:100FF000704700002DE9F04F83B000F1200200F1AE
:101000003E4741F60045009207F1FF77C4F2020522
:1010100008224FEAB726A84208BF072200254FF052
:1010200000084FF00009072E38BF4FEAB72201929F
:101030000AE000BF09F1010908F10208B9F1100F37
:1010400005F1040500F0A2800F68012202FA09FEF2
:1010500017EA0E0AEED0D1F804C003220CF0030701
:101060007E1E02FA08F4012E6FEA040B12D884687F
:10107000CE6804EA0B0406FA08F634438460446838
:1010800024EA0E06CCF3001404FA09F42643466061
:1010900004E000BF032F01D103271EE0C6688C685F
:1010A00006EA0B0604FA08F42643022FC66014D1A0
:1010B0006FF00302009E02EA590756F807C005F0D8
:1010C0001C040F220B69A2402CEA0202A3401A431F
:1010D000F251D1F804C00CF00307026807FA08F3D4
:1010E00002EA0B021A431CF4403F0260A2D0002225
:1010F00043F644030292C4F202031A6843F6004422
:1011000042F480421A601A68C4F2010402F4804278
:101110000292029A29F003024FF6084C2244CFF6BD
:10112000FF7C52F80C3005F00C070F26BE40B3438D
:10113000019E06FA07F73B4342F80C30A2684B6861
:1011400042EA0A0743F60C4CDE0258BF22EA0A07BD
:10115000A760C4F2010CDCF800209E0242EA0A07F4
:1011600058BF22EA0A07CCF8007062689E0342EA80
:101170000A0758BF22EA0A0767602268DB0342EACF
:101180000A0758BF22EA0A07276053E703B0BDE801
:10119000F08F000040F20410C2F2000000687047B7
:1011A00040F2000040F20411C2F20000C2F200015D
:1011B00000780A68104408607047000080B543F664
:1011C0000040C4F20200016841F40071016001684E
:1011D00041F480610160016841F480710160032085
:1011E00000F086F80F2000F005F800F027F8002046
:1011F00080BD000070B540F20006C2F2000640F269
:1012000008013278C2F200014FF47A730968B3FB27
:10121000F2F20446B1FBF2F1084600F061FB0F2C3C
:101220004FF0010508D838B94FF0FF3021460022B1
:10123000002500F031F87460284670BD82B00020AF
:1012400043F640010190C4F202014A6842F4804230
:101250004A604A6802F480420192019A009008684C
:1012600040F080500860086800F0805000900098BE
:1012700002B07047002848BF704700F01F010122EC
:1012800002FA01F11C2202EAD0004EF20012CEF264
:10129000000281507047000010B54EF60C5CCEF293
:1012A000000CDCF80030C3F3022E8EF00704042C8F
:1012B00028BF0424BEF103034FF0FF3E0EFA04F4EE
:1012C00038BF0023A14399400EFA03F39A43114318
:1012D00000F00F0200F160430901043A03F5644392
:1012E0006244002848BF02F10C03197010BD0000D1
:1012F0004EF60C51CEF200010A684FF6FF031A4079
:1013000060F30A2242F0806040F0FD700860704790
:10131000002804BF012070472DE9F04143F608087A
:10132000C4F202080446D8F8F8030D4600F007009E
:10133000814207D988F8F853D8F8F80300F007007D
:10134000A84277D12068810717D5410705D5D8F87D
:10135000001041F4E051C8F80010010705D5D8F895
:10136000001041F46041C8F80010D8F80010A268DD
:1013700021F0F0011143C8F80010C00740D1D8F89F
:10138000F80300F00700854207D288F8F853D8F830
:10139000F80300F00700A8424CD12068410707D5A8
:1013A000D8F80010E26821F4E0511143C8F80010A9
:1013B000000708D5D8F80000216920F4604040EA11
:1013C000C100C8F8000000F07DF8D8F8001041F620
:1013D0005F62C1F30311C0F60002515C40F20802E3
:1013E00020FA01F140F20400C2F200000068C2F2EB
:1013F00000021160FFF7FEFE0020BDE8F08100BF93
:101400006068811E022907D258F8081C89015CBF58
:101410000120BDE8F08111E0012807D158F8081C2F
:1014200089035CBF0120BDE8F08107E058F8081C83
:10143000890703D40120BDE8F08100BFD8F800106F
:1014400021F003010843C8F80000FFF7A3FE064699
:1014500041F28837D8F80000616800F00C00B0EB6A
:10146000810F8CD0FFF796FE801BB842F2D9032083
:10147000BDE8F08140F2080043F60801C2F2000026
:10148000C4F202010068096841F66F62C1F382216B
:10149000C0F60002515CC8407047000040F20800EE
:1014A00043F60801C2F20000C4F2020100680968B4
:1014B00041F66F62C1F34231C0F60002515CC84090
:1014C0007047000010B543F60404C4F202046168DA
:1014D000C1F3810142F20040C0F2F400DFE801F004
:1014E00002040A0210BD00BF47F64000C0F27D10A2
:1014F00010BD00BF206821682368490247F64001FB
:10150000C0F27D1100F03F02C3F388105CBF42F2CD
:101510000041C0F2F401A1FB00010023FEF7C2FE6E
:1015200021680222C1F3014102EB4101B0FBF1F05D
:1015300010BD0000002804BF012070472DE9F041D4
:1015400082B00446007843F60006C007C4F20206E3
:101550000CD0B06800F00C00042840F081803068A6
:10156000800303D56068002800F068812078800738
:101570001BD5B06810F00C0F09D0B06800F00C005B
:10158000082840F087807068400200F1838030684E
:10159000800703D5E068012840F050813068216958
:1015A00020F0F80040EAC10030602078000713D432
:1015B000207840072AD4A569002D00F03A81B06850
:1015C00000F00C00082840F0A580012D40F00E81AD
:1015D000012002B0BDE8F0816069002800F082803F
:1015E0000020C4F247200121C0F8801EFFF7D2FD81
:1015F000054600BF706F8007DAD4FFF7CBFD401BB4
:101600000228F7D9032002B0BDE8F081306C5FEA10
:10161000C0080AD400200190306C40F08050306443
:10162000306C00F080500190019847F20007C4F23E
:1016300000073868C00547D4386840F480703860C7
:10164000FFF7A8FD054600BF3868C0053CD4FFF78A
:10165000A1FD401B0228F7D9032002B0BDE8F081AC
:10166000B06800F00C00082803D1706840023FF514
:1016700076AF61683068B1F5803F07D0B1F5A02F33
:1016800040F09A8040F480203060306840F4803030
:1016900030609AE0E068002840F20000C4F2472081
:1016A0005CD001210160FFF775FD054630688007B9
:1016B0003FF574AFFFF76EFD401B0228F6D90320FB
:1016C00002B0BDE8F08100BFA168306F012905D0EC
:1016D000052955D140F004003067306F40F001001B
:1016E000306756E00020C4F247200021C0F8801E79
:1016F000FFF750FD054600BF706F80077FF558AFBC
:10170000FFF748FD401B0228F6D9032002B0BDE8D0
:10171000F08100BF0027C4F2472700203866FFF79A
:1017200039FD022D05460DD13068800140F18A80D7
:10173000FFF730FD401B02284FF00300F4D902B040
:10174000BDE8F0813068800173D5FFF723FD401BB1
:1017500002284FF00300F5D9F1E700BF0021016036
:10176000FFF718FD054600BF306880077FF51DAF05
:10177000FFF710FD401B02284FF00300F4D9DEE70D
:1017800020F001003067306F002920F0040030673E
:101790007AD0FFF7FFFC054641F28837306F8007AB
:1017A00000F18480FFF7F6FC401BB842F6D9032015
:1017B00002B0BDE8F08100BF20F4803030603068B6
:1017C000002920F4802030607AD0FFF7E3FC054642
:1017D000306880033FF5CAAEFFF7DCFC401B64288D
:1017E000F6D9032002B0BDE8F08100BF7068E1695E
:1017F00000F480028A4221D1216A00F03F028A422D
:101800001CD147F6C071626A0140B1EB821F15D14D
:10181000A16A4FF6FF73C903994300F44032A1F562
:1018200080318A420AD1E16A00F07060B0EB016F4A
:1018300004D1002002B0BDE8F08100BF012002B059
:10184000BDE8F08104F11C052FCD084340EA821069
:10185000D9034FF6FF729143A1F5803140EA05604C
:101860000843706001203866FFF794FC044600BF0F
:1018700030688001DDD4FFF78DFC001B02284FF09B
:101880000300F5D95BE700BFFFF784FC054641F292
:10189000883700BF306F800708D5FFF77BFC401BFF
:1018A000B8424FF00300F5D949E700BFB8F1000F87
:1018B0003FF581AE306C20F0805030647BE600BF95
:1018C000FFF768FC054600BF306880037FF54EAE29
:1018D000FFF760FC401B64284FF00300F4D92EE7AB
:1018E000411E0020B0EB116F1CBF012070474EF26B
:1018F0001002CEF2000251604EF62351CEF20001EA
:10190000F0230B700721906011607047002804BF1E
:101910000120704710B5044690F8410028B9002016
:1019200084F84000204600F021F8242084F841008B
:101930002068C16821F40051C160204600F086F99A
:101940002068016921F490410161416921F02A0177
:101950004161C16841F40051C160002020216064F0
:1019600084F8411084F84210606310BD80B586B0E1
:1019700041F200010068C4F2010100228842059290
:10198000CDE903220292019202D006B080BD00BFD1
:1019900043F630000092C4F20200436943F01003A2
:1019A0004361436903F010030093009B00920368B6
:1019B00043F001030360006800F00100009000980C
:1019C0004FF4C06001900220CDE902020320049090
:1019D0000720059001F5704001A9FFF70BFB06B049
:1019E00080BD00002DE9F04381B0044690F841002D
:1019F000202809D100294FF0010018BF002A07D183
:101A000001B0BDE8F08300BF022001B0BDE8F08363
:101A10000020606421201D460E4684F841001746D0
:101A2000FFF7B8FBA784E784A1688146B1F5805F22
:101A300002D1206900285DD037460020E28C216861
:101A4000002A5DD06A1C24D0002D4AD0804600BFF9
:101A50000868000608D4FFF79DFBA0EB0900A84228
:101A60007AD82168C868F3E717B117F8010B04E0CA
:101A700038F8020B00276FF35F204860E08C0138D4
:101A8000E084E08C0028E3D13AE000BF0A68120647
:101A900009D40A68120606D40A6812065CBF0A68EE
:101AA0005FEA0262F2D51FB117F8012B05E000BF13
:101AB00030F8022B00276FF35F224A60E28C013A74
:101AC000E284E28C002AE4D11AE000BF30F8022B55
:101AD00000276FF35F224A60E28C013AE284E28CD5
:101AE00072B10A68120635D5002FEFD017F8012B16
:101AF000F1E700BF00273046E28C2168002AA1D11F
:101B0000086840061ED42DB3681C14D1086840062E
:101B10002AD40868400627D40868400624D40868F8
:101B200040064FF00000F1D50DE000BF2068C1680D
:101B30000068400618D4FFF72DFBA0EB0900A8426F
:101B4000F4D909E00020202184F8411001B0BDE85B
:101B5000F08300BFFFF71EFB0320202184F8411013
:101B600001B0BDE8F08300BF0020202184F84110BF
:101B700001B0BDE8F0830000FEE70000FEE70000D2
:101B8000FEE700007047000070470000FFF708BB49
:101B900070B592B006AC20463021FEF76FFD0025EF
:101BA00043F640000595CDE90355CDE90155009573
:101BB000C4F202000168022641F080510160006811
:101BC00000F080500090009847F200000095C4F2A9
:101BD0000000016841F480410160006800F4804029
:101BE000009000980120099010200A9008200E9083
:101BF000A820CDE90F060420119020460696CDE9D5
:101C00000C65FFF797FC18B172B600BFFEE700BF86
:101C10000F20CDE901064FF4A05004904FF48050FE
:101C2000059001A805210395FFF772FB10B172B66C
:101C3000FEE700BF12B070BD4EF68850CEF2000035
:101C4000016841F47001016070470000B0B50446BE
:101C5000006804F108030ECB0569194325F44055CB
:101C60002A4302616269E3691143C268194349F278
:101C70000C639A431143C1604169A26921F4407128
:101C800041F20043114340F48062C4F201039A42DE
:101C9000416103D1FFF702FC02E000BFFFF7EAFB5E
:101CA000E1694FF69C7563681922C0F6FF75B1F5BE
:101CB000004FA0FB02011FD15A00DB0FFEF7F2FA22
:101CC00048F21F51C5F2EB11A0FB01235A0905F19F
:101CD000805302FB0300322303EBC000A0FB010191
:101CE0004FF4F87000EA111000EB0210C1F342113A
:101CF000084421688860B0BD9A009B0FFEF7D2FAB5
:101D000048F21F51C5F2EB11A0FB01235A0902FB57
:101D10000500322303EB0010A0FB0101F02000EAD4
:101D2000511000EB0210C1F3431108442168886090
:101D3000B0BD0000FEE700008AB046F20045C4F2E4
:101D40000005FFF73BFAFFF723FF40F27004C2F2F1
:101D50000004204640F8245F062100264FF440226C
:101D60004FF48013C0E90116C0E90362C0E90536EB
:101D70008683FEF7CFFF18B172B600BFFEE700BF43
:101D800040F2BC0005F52C41C2F200000C234FF4D8
:101D9000E13280E84600C0E90366C0E90536C66165
:101DA000FFF7B4FD10B172B6FEE700BF00204FF69A
:101DB000E072CDE905000121CDE90000CDE9022066
:101DC00004900E202434079108910990694620461A
:101DD000FEF766FD10B172B6FEE700BF2046FFF7C2
:101DE000CDF818B172B600BFFEE700BF2046022151
:101DF000FEF73EFD10B172B6FEE700BFFEE73038D9
:101E00000A2801D20120704700207047F1EE100A25
:101E10004FF6FF71C0F2C03120EA010040F040707F
:101E2000E1EE100A70473031323334353637383905
:101E30004142434445464030580030313233343516
:101E40003637383961626364656640307800040073
:101E50000008000000000000000200010000100067
:101E6000000000000000000102030406070809004A
:101E7000000000010203040D0A0049443A253033F2
:101E80006C5820444C433A256C7520446174613A87
:101E90000020253032580000B81E00080000002045
:101EA00010000000EC010008C81E0008100000200F
:101EB000F80600000C0200080100000010000000FD
:081EC0000024F4000000000002
:040000050800018965
:00000001FF
